:020000040800F2
:1000000070140020210200088D0500089752000896
:1000100099050008A1050008A905000800000000D6
:10002000000000000000000000000000B105000812
:10003000BD05000800000000C9050008D50500083E
:100040009902000899020008990200089902000824
:100050009902000899020008990200089902000814
:100060009902000899020008990200089902000804
:1000700099020008990200089902000899020008F4
:1000800099020008990200089902000899020008E4
:1000900099020008990200089902000899020008D4
:1000A00099020008990200089902000899020008C4
:1000B00099020008990200089902000899020008B4
:1000C00099020008990200089902000899020008A4
:1000D00099020008E1050008990200089902000849
:1000E0009902000899020008990200089902000884
:1000F0009902000899020008990200089902000874
:100100009902000899020008990200089902000863
:100110009902000899020008990200089902000853
:100120009902000899020008990200089902000843
:100130009902000899020008990200089902000833
:100140009902000899020008990200089902000823
:100150009902000899020008990200089902000813
:100160009902000899020008990200089902000803
:1001700099020008990200089902000899020008F3
:10018000990200089902000880B582B000AF78603B
:1001900040F6D823C2F200031A687B68D9B240F651
:1001A000C823C2F20003995402F1010240F6D82399
:1001B000C2F200031A6040F6D823C2F200031A68A4
:1001C00040F6C823C2F200034FF00001995440F6F4
:1001D000D823C2F200031B6803F101030F2B05D8DB
:1001E0007B680A2B02D07B68002B14D140F6D82301
:1001F000C2F200034FF000021A6040F6C823C2F2B8
:1002000000034FF0040019464FF0000205F038F8E3
:100210000346002B00BF07F10807BD4680BD00BFA5
:1002200080B582B000AF4DF6B823C0F600037B6006
:1002300040F20003C2F200033B600BE07B681A68E7
:100240003B681A603B6803F104033B607B6803F181
:1002500004037B603A6840F6C423C2F200039A426A
:10026000ECD30B480B494FF000028842B8BF40F86E
:10027000042BFFF6FAAF4FF46D43CEF200034FF0BC
:1002800000629A6000F080F807F10807BD4680BD63
:10029000C80A0020700C002080B400AFFEE700BF49
:1002A00080B483B000AF78607B689B889BB24FEAD4
:1002B000C3534FEAD3539BB2184607F10C07BD4610
:1002C00080BC704780B487B000AF78600B467B80FD
:1002D0004FF00003FB604FF000037B614FF0000321
:1002E000BB604FF00003FB747B88DBB24FEA531313
:1002F000DBB2BB607B8803F01F037B617B694FF03F
:10030000010202FA03F37B61BB68012B06D17B6813
:100310009B899BB27A6913407B610FE0BB68022B1B
:1003200006D17B681B8A9BB27A6913407B6105E02A
:100330007B689B8A9BB27A6913407B617B884FEA1A
:1003400013239BB2FB60FB684FF0010202FA03F338
:10035000FB607B681B889BB2FA681340FB607B697B
:10036000002B06D0FB68002B03D04FF00103FB7479
:1003700002E04FF00003FB74FB7C184607F11C07FA
:10038000BD4680BC704700BF80B582B000AF00F0B2
:1003900083F902F077F94FF0000004F093F900F0D0
:1003A00033FF4FF01F004FF478414FF0000206F08A
:1003B00097F84FF001004FF4807108F05FFD03469D
:1003C0007B6000F035FB034640F62030C2F20000AF
:1003D000194640F63032C2F2000200F06DFE786835
:1003E00006F0F2FAEDE700BF80B483B000AF7860AA
:1003F0000B46FB70FB78002B0CD04FF46053C4F21B
:1004000002034FF46052C4F20202116B7A680A438D
:100410001A630DE04FF46053C4F202034FF46052CC
:10042000C4F20202116B7A686FEA02020A401A6390
:1004300007F10C07BD4680BC704700BF80B483B095
:1004400000AF78600B46FB70FB78002B0CD04FF4AC
:100450006053C4F202034FF46052C4F20202916B83
:100460007A680A439A630DE04FF46053C4F20203C2
:100470004FF46052C4F20202916B7A686FEA020292
:100480000A409A6307F10C07BD4680BC704700BF65
:1004900080B483B000AF78600B46FB70FB78002B14
:1004A0000CD04FF46053C4F202034FF46052C4F214
:1004B0000202116C7A680A431A640DE04FF460532B
:1004C000C4F202034FF46052C4F20202116C7A6863
:1004D0006FEA02020A401A6407F10C07BD4680BCAD
:1004E000704700BF80B483B000AF78600B46FB70EC
:1004F000FB78002B0CD04FF46053C4F202034FF48E
:100500006052C4F20202116A7A680A431A620DE06C
:100510004FF46053C4F202034FF46052C4F202027B
:10052000116A7A686FEA02020A401A6207F10C0740
:10053000BD4680BC704700BF80B483B000AF786018
:100540000B46FB70FB78002B0CD04FF46053C4F2C9
:1005500002034FF46052C4F20202516A7A680A43FD
:100560005A620DE04FF46053C4F202034FF460523C
:10057000C4F20202516A7A686FEA02020A405A62C1
:1005800007F10C07BD4680BC704700BF80B400AFC8
:10059000BD4680BC704700BF80B400AFFEE700BF1F
:1005A00080B400AFFEE700BF80B400AFFEE700BF3D
:1005B00080B400AFBD4680BC704700BF80B400AFC0
:1005C000BD4680BC704700BF80B400AFBD4680BC54
:1005D000704700BF80B400AFBD4680BC704700BF0D
:1005E00080B500AF4FF49040C4F2000040F22551B6
:1005F000FFF768FE0346002B0DD04FF49040C4F285
:100600000000FFF74DFE03464DF24000C0F600002B
:10061000194601F0C9FB80BD80B586B000AF4FF42C
:1006200080404FF00101FFF733FF4FF46050C4F2F8
:10063000000005F00FF84FF00003BB804FF4827309
:10064000FB804FF000033B814FF000037B814FF0B4
:100650000003BB814FF40073FB814FF020033B820A
:100660004FF000037B824FF00703BB8207F10403C6
:100670004FF46050C4F20000194605F02FF84FF413
:100680006050C4F200004FF0010105F06BF807F173
:100690001807BD4680BD00BF80B582B000AF4FF0E7
:1006A00002004FF00101FFF79FFE4FF004004FF0F2
:1006B0000101FFF799FE4FF480404FF00101FFF771
:1006C000E7FE4FF48060C4F202004FF00D014FF0DE
:1006D000050204F081FD4FF48060C4F202004FF087
:1006E0000E014FF0050204F077FD4FF48060C4F274
:1006F00002004FF00F014FF0050204F06DFD4FF4C2
:1007000000533B604FF002033B714FF003037B71DA
:100710004FF00003BB714FF00103FB713B464FF4F8
:100720008060C4F20200194604F07AFC4FF4804362
:100730003B603B464FF48060C4F20200194604F06F
:100740006FFC4FF400433B603B464FF48060C4F2C3
:100750000200194604F064FC4FF010033B604FF0B8
:1007600001033B714FF00003BB714FF003037B713A
:100770004FF00103FB713B464FF40060C4F20200EE
:10078000194604F04DFC4FF020033B604FF000038E
:100790003B714FF00003BB714FF003037B714FF0CF
:1007A0000103FB713B464FF40060C4F2020019469E
:1007B00004F036FC4FF40060C4F202004FF0100168
:1007C00004F0EEFCFFF728FF07F10807BD4680BDE7
:1007D00080B485B000AF78604FF00003FB8113E078
:1007E0004FF00C037B7300BF7B7B002B0CBF0023FF
:1007F0000123DBB27A7B02F1FF327A73002BF3D153
:10080000FB8903F10103FB81FA897B689A42E7D3F4
:1008100007F11407BD4680BC704700BF80B582B0A9
:1008200000AF0346FB7100BF4FF46050C4F20000FC
:100830004FF0020104F0D2FF0346002BF4D0FB7905
:100840009BB24FF46050C4F20000194604F0B8FFA8
:1008500000BF4FF46050C4F200004FF0010104F0FB
:10086000BDFF0346002BF4D04FF46050C4F20000EB
:1008700004F098FF07F10807BD4680BD80B582B03F
:1008800000AF00BF4FF46050C4F200004FF002010F
:1008900004F0A4FF0346002BF4D04FF46050C4F2E0
:1008A00000004FF0000104F08BFF00BF4FF46050D8
:1008B000C4F200004FF0010104F090FF0346002B4A
:1008C000F4D04FF46050C4F2000004F06BFF034614
:1008D000FB80FB884FEA0323BB804FF00100FFF74A
:1008E00077FF00BF4FF46050C4F200004FF00201E8
:1008F00004F074FF0346002BF4D04FF46050C4F2B0
:1009000000004FF0000104F05BFF00BF4FF46050A7
:10091000C4F200004FF0010104F060FF0346002B19
:10092000F4D04FF46050C4F2000004F03BFF0346E3
:10093000FB80BA88FB881343BB80BB884FEAD30394
:10094000BB80BB884FEA03534FEA1353BB80BB887D
:10095000184607F10807BD4680BD00BF80B582B0CC
:1009600000AF4FF40060C4F202004FF0100104F039
:1009700025FC4FF00100FFF72BFF4FF09000FFF731
:100980004DFF4FF00100FFF723FFFFF777FF78607F
:100990004FF40060C4F202004FF0100104F000FCBC
:1009A0007B68184607F10807BD4680BD80B582B058
:1009B00000AF4FF40060C4F202004FF0100104F0E9
:1009C000FDFB4FF00100FFF703FF4FF0D000FFF7F2
:1009D00025FF4FF00100FFF7FBFEFFF74FFF7860A8
:1009E0004FF40060C4F202004FF0100104F0D8FB95
:1009F0007B68184607F10807BD4680BD80B584B006
:100A000000AF78603960FFF7A9FFF8604FF0010090
:100A1000FFF7DEFEFFF7CAFFB8607B68FA681A606E
:100A20003B68BA681A6007F11007BD4680BD00BF79
:100A300080B59CB000AF4FF0000387F86F3007F12E
:100A400004024FF0480310464FF000011A4608F028
:100A500005FD07F15C0207F1580310461946FFF740
:100A6000CDFF97F86F30FA6D4FEA830307F17000FE
:100A7000C31843F86C2C97F86F30BA6D03F1090373
:100A80004FEA830307F17001CB1843F86C2C97F8F9
:100A90006F3003F1010387F86F304FF40060C4F248
:100AA00002004FF0200104F05DFB0346002B03D150
:100AB00097F86F30082BCCD997F86F30092B40F09E
:100AC0003B817A68BB68D218FB68D21845F256534E
:100AD000C5F2555383FB02014FEAE273CB1AFB6464
:100AE0003A697B69D218BB69D21845F25653C5F2F0
:100AF000555383FB02014FEAE273CB1A3B65FA6957
:100B00003B6AD2187B6AD21845F25653C5F2555348
:100B100083FB02014FEAE273CB1A7B65FA6C3B6DF3
:100B2000D31ABB663A6D7B6DD31A7B667A6DFB6C0C
:100B3000D31A3B66BB6E002BB8BF5B42BB667B6EB5
:100B4000002BB8BF5B427B663B6E002BB8BF5B429D
:100B50003B66BB6E022B08DD7B6E022B05DD3B6E18
:100B6000022B02DD4FF00003E8E0BA6E7B6E9A4282
:100B700021DA3A6EBB6E9A420EDAFA6C7B6DD318AC
:100B80004FEAD372D3184FEA63039AB240F6DC23DC
:100B9000C2F200031A802FE0FA6C3B6DD3184FEAC3
:100BA000D372D3184FEA63039AB240F6DC23C2F241
:100BB00000031A8020E03A6E7B6E9A420EDAFA6CDD
:100BC0007B6DD3184FEAD372D3184FEA63039AB2FE
:100BD00040F6DC23C2F200031A800DE03A6D7B6D13
:100BE000D3184FEAD372D3184FEA63039AB240F690
:100BF000DC23C2F200031A80BA6AFB6AD2183B6B8C
:100C0000D21845F25653C5F2555383FB02014FEA01
:100C1000E273CB1AFB647A6BBB6BD218FB6BD218F6
:100C200045F25653C5F2555383FB02014FEAE27376
:100C3000CB1A3B653A6C7B6CD218BB6CD21845F270
:100C40005653C5F2555383FB02014FEAE273CB1AA8
:100C50007B65FA6C3B6DD31ABB663A6D7B6DD31A1C
:100C60007B667A6DFB6CD31A3B66BB6E002BB8BFFC
:100C70005B42BB667B6E002BB8BF5B427B663B6E04
:100C8000002BB8BF5B423B66BB6E022B08DD7B6E60
:100C9000022B05DD3B6E022B02DD4FF000034DE021
:100CA000BA6E7B6E9A4221DA3A6EBB6E9A420EDAC7
:100CB000FA6C7B6DD3184FEAD372D3184FEA6303F3
:100CC0009AB240F6DC23C2F200035A802FE0FA6C9D
:100CD0003B6DD3184FEAD372D3184FEA63039AB22D
:100CE00040F6DC23C2F200035A8020E03A6E7B6EAD
:100CF0009A420EDAFA6C7B6DD3184FEAD372D3188E
:100D00004FEA63039AB240F6DC23C2F200035A8032
:100D10000DE03A6D7B6DD3184FEAD372D3184FEACA
:100D200063039AB240F6DC23C2F200035A8040F615
:100D3000DC23C2F2000301E04FF00003184607F184
:100D40007007BD4680BD00BF80B586B000AFF860BB
:100D5000B9607A604FF00103FB75BB681B881A46C7
:100D6000BB6803F108031B88D31ABA6802F10402B6
:100D700052881146BA6802F1080252888A1A02FBA8
:100D800003F2BB6803F104031B881946BB6803F137
:100D900008031B88CB1AB96801F108014988084685
:100DA000B9684988411A01FB03F3D318184607F0C4
:100DB0000DFA02460B467968C1E90C237B68D3E93A
:100DC0000C23104619464FF000024FF0000307F0C5
:100DD000CBFC0346002B03D04FF00003FB7565E10D
:100DE000FB681B881A46FB6803F108031B88D31AAB
:100DF000BA6802F1040252881146BA6802F1080288
:100E000052888A1A02FB03F2FB6803F104031B8871
:100E10001946FB6803F108031B88CB1AB96801F176
:100E2000080149880846B9684988411A01FB03F35B
:100E3000D318184607F0CAF902460B467968C1E98B
:100E40000023BB681B881A46BB6803F108031B8894
:100E5000D31AFA6802F1040212881146FA6802F104
:100E6000080212888A1A02FB03F2FB681B881946E3
:100E7000FB6803F108031B88CB1AB96801F108016C
:100E800009880846B96801F104010988411A01FB83
:100E900003F3D318184607F099F902460B46796810
:100EA000C1E90223BB6803F108031B88FA6802F159
:100EB0000402128802FB03F2BB6803F104031B88DF
:100EC000F96801F10801098801FB03F3D31ABA6834
:100ED000528802FB03F2BB681B88F96801F1080124
:100EE000098801FB03F1BB6803F108031B88F8685C
:100EF000008800FB03F3CB1AB96801F104014988AB
:100F000001FB03F3D218BB6803F104031B88F968E3
:100F1000098801FB03F1BB681B88F86800F1040035
:100F2000008800FB03F3CB1AB96801F10801498876
:100F300001FB03F3D318184607F048F902460B46A5
:100F40007968C1E90423FB685B881A46FB6803F1F2
:100F500008035B88D31ABA6802F10402528811466A
:100F6000BA6802F1080252888A1A02FB03F2FB688F
:100F700003F104035B881946FB6803F108035B88EF
:100F8000CB1AB96801F1080149880846B96849884F
:100F9000411A01FB03F3D318184607F017F902466C
:100FA0000B467968C1E90623BB681B881A46BB68F3
:100FB00003F108031B88D31AFA6802F1040252886D
:100FC0001146FA6802F1080252888A1A02FB03F2FB
:100FD000FB685B881946FB6803F108035B88CB1A42
:100FE000B96801F1080109880846B96801F10401EE
:100FF0000988411A01FB03F3D318184607F0E6F8F5
:1010000002460B467968C1E90823BB6803F108036F
:101010001B88FA6802F10402528802FB03F2BB68E3
:1010200003F104031B88F96801F10801498801FBF9
:1010300003F3D31ABA68528802FB03F2BB681B8819
:10104000F96801F10801498801FB03F1BB6803F16C
:1010500008031B88F868408800FB03F3CB1AB968C3
:1010600001F10401498801FB03F3D218BB6803F1C5
:1010700004031B88F968498801FB03F1BB681B88DE
:10108000F86800F10400408800FB03F3CB1AB9684C
:1010900001F10801498801FB03F3D318184607F052
:1010A00095F802460B467968C1E90A23FB7D18468C
:1010B00007F11807BD4680BD2DE9B04386B000AFEB
:1010C000F860B9607A604FF00103FB757B68D3E983
:1010D0000C23104619464FF000024FF0000307F0B2
:1010E00043FB0346002B40F085807B68D3E9004535
:1010F000BB681B88184607F069F802460B46204675
:10110000294607F0C9F802460B4614461D467B687F
:10111000D3E90289BB685B88184607F057F8024696
:101120000B464046494607F0B7F802460B462046B4
:10113000294606F0FFFE02460B46104619467B681C
:10114000D3E9042306F0F6FE02460B461046194684
:101150007B68D3E90C2307F0C9F902460B46104619
:10116000194607F05BFB03469AB2FB681A807B685E
:10117000D3E90645BB681B88184607F027F80246E6
:101180000B462046294607F087F802460B461446D0
:101190001D467B68D3E90889BB685B88184607F061
:1011A00015F802460B464046494607F075F80246D8
:1011B0000B462046294606F0BDFE02460B46104669
:1011C00019467B68D3E90A2306F0B4FE02460B46B3
:1011D000104619467B68D3E90C2307F087F90246CD
:1011E0000B461046194607F019FB03469AB2FB68F6
:1011F0005A8002E04FF00003FB75FB7D184607F1B3
:101200001807BD46BDE8B08380B500AF40F6243373
:10121000C2F2000340F205321A8040F62433C2F2D3
:10122000000340F6E7325A8040F62433C2F200034E
:101230004FF453629A8040F62433C2F2000340F622
:10124000C602DA8040F62433C2F2000340F26E7226
:101250001A8140F62433C2F2000340F25D225A8123
:1012600040F20000C2F2000040F62431C2F2000158
:1012700040F63032C2F20002FFF766FD4FF0000088
:1012800003F020FA80BD00BF90B482B000AF786058
:101290000B46FB70FB78A3F120034FEA03124DF2DB
:1012A0007803C0F60003D2187B6814685068916810
:1012B000D2681C6058609960DA6007F10807BD4683
:1012C00090BC704780B582B000AF0346FB71FB79DC
:1012D0001846FEF759FF07F10807BD4680BD00BF5D
:1012E00080B483B000AF78600B46FB707B68FA78FF
:1012F0001A704FF00103184607F10C07BD4680BC79
:10130000704700BF80B485B000AF786039604FF09F
:101310000003FB600FE03B681A787B681A707B68FB
:1013200003F101037B603B6803F101033B60FB6851
:1013300003F10103FB603B681B78002BEBD1FB68DA
:10134000184607F11407BD4680BC704780B586B0CB
:1013500000AFF8607A603B600B46FB724FF0000311
:101360007B617B6803F1FF337B603B68092B25D9E8
:101370003A684CF6CD43CCF6CC43A3FB02134FEABC
:10138000D303FA7AF86811467A68FFF7DFFF7861CD
:101390007B69FA68D318FB6013E0FB7AF86819469A
:1013A000FFF79EFFFB6803F10103FB607B6903F11C
:1013B00001037B617B6803F1FF337B607B68002B5B
:1013C000EBDC39684CF6CD43CCF6CC43A3FB0123D0
:1013D0004FEAD30213464FEA83039B184FEA4303B5
:1013E000CA1AD3B203F13003DBB2F8681946FFF72B
:1013F00077FF03467A69D3187B617B69184607F14A
:101400001807BD4680BD00BF80B588B002AFF86048
:101410000B467A60FB724FF000037B617B6803F13F
:10142000FF337B60D7E908234FF009004FF000013C
:10143000994208BF904229D2D7E90823104619469D
:101440004FF00A024FF0000307F008FA02460B467D
:10145000F97ACDE90023F8687A68FFF7D5FF78615B
:101460007B69FA68D318FB6013E0FB7AF8681946C9
:10147000FFF736FFFB6803F10103FB607B6903F1B3
:1014800001037B617B6803F1FF337B607B68002B8A
:10149000EBDCD7E90823104619464FF00A024FF05B
:1014A000000307F0DBF9D3B203F13003DBB2F868D5
:1014B0001946FFF715FF03467A69D3187B617B69EC
:1014C000184607F11807BD4680BD00BF80B586B03D
:1014D00000AFF8607A603B600B46FB724FF0000390
:1014E0007B613B68002B04DA3B68C3F100033B617E
:1014F00001E03B683B617B6803F1FF337B603B6944
:10150000092B2AD93B68002B12DA3A694CF6CD43F5
:10151000CCF6CC43A3FB02134FEAD303C3F1000381
:10152000FA7AF86811467A68FFF7D0FF78610FE021
:101530003A694CF6CD43CCF6CC43A3FB02134FEAF9
:10154000D303FA7AF86811467A68FFF7BFFF78612B
:101550007B69FA68D318FB602BE03B68002B15DA37
:101560007B6803F1FF337B6010E0FB7AF868194673
:10157000FFF7B6FEFB6803F10103FB607B6903F133
:1015800001037B617B6803F1FF337B607B68002B89
:10159000EBDC3B68002B0CDAF8684FF02D01FFF70D
:1015A0009FFE03467A69D3187B61FB6803F1010350
:1015B000FB6039694CF6CD43CCF6CC43A3FB012349
:1015C0004FEAD30213464FEA83039B184FEA4303C3
:1015D000CA1AD3B203F13003DBB2F8681946FFF739
:1015E0007FFE03467A69D3187B617B69184607F151
:1015F0001807BD4680BD00BF80B588B002AFF86057
:101600007A600A46FA72BB724FF000037B617B6816
:1016100003F1FF337B603B6A4FEA1313002B24D0A6
:101620003B6A4FEA1311FA7ABB7A0091F8681146C7
:101630007A68FFF7E1FF03467A69D3187B617B691B
:10164000FA68D318FB6013E0FB7AF8681946FFF7D5
:1016500047FEFB6803F10103FB607B6903F10103B3
:101660007B617B6803F1FF337B607B68002BEBDCE5
:101670003B6A03F00F03092B0CD83B6ADBB203F083
:101680000F03DBB203F13003DBB2F8681946FFF752
:1016900027FE1BE0BB7A002B0CD03B6ADBB203F0C9
:1016A0000F03DBB203F13703DBB2F8681946FFF72B
:1016B00017FE0BE03B6ADBB203F00F03DBB203F172
:1016C0005703DBB2F8681946FFF70AFE7B6903F19E
:1016D00001037B617B69184607F11807BD4680BD91
:1016E00080B588B000AFC7E902017A604FF0000210
:1016F0004FF00003C4F21403C7E906234FF00003C0
:101700007B6111E0D7E906014FF000024FF00003C2
:10171000C4F2240306F0EAFE02460B46C7E906239C
:101720007B6903F101037B617A697B689A42E9DD99
:10173000D7E90201D7E9062306F0FCFB02460B4677
:101740001046194607F12007BD4680BD80B594B00C
:1017500002AFF8607A603B600B46FB724FF001030A
:101760007B64D7E9140107F08FF802460B46C7E9FE
:101770000A23D7E90A0106F059FD02460B46D7E9CC
:10178000140106F0D5FB02460B46C7E90E234FF0C5
:1017900000037B633B68002B02D14FF005033B60E5
:1017A000D7E914014FF000024FF0000306F0E6FF06
:1017B0000346002B08D04FF0FF337B643B6D3B6545
:1017C0007B6D83F000437B65BB6A184603F09EFD8A
:1017D0007862D7E90E013A68FFF782FFC7E90E0188
:1017E0007B6A03F101034FF00100194607F046FB45
:1017F00003463B623B6803F101034FF001001946C9
:1018000007F03CFB0346FB614FF001004FF0020183
:1018100007F034FB0346BB617A6A3B68D3184FF08C
:101820000100194607F02AFB03463B63F97AD7E922
:101830000A23CDE90023386A7A6AFFF7E5FD30E034
:101840007B6B03F101037B63D7E90E014FF00002CC
:101850004FF00003C4F2240306F01EFD02460B46BF
:10186000C7E90E23D7E90E0106F0B0FF03467B61FE
:10187000786906F0ABFC02460B46D7E90E0106F08C
:1018800057FB02460B46C7E90E23B8694DF2686163
:10189000C0F600017A6900F09DFAF869B96907F0AD
:1018A00089FE7A6B3B689A42CADB7B6CB3F1FF3FDF
:1018B0000BD1386B08F06EF803463A6BD2184DF234
:1018C0006C63C0F600031B881380386B396A07F01D
:1018D00071FE3863386B08F05DF803463A6BD21836
:1018E0004DF27063C0F600031B881380386BF969F2
:1018F00007F060FE3863F868396BFFF703FD386165
:101900003B69184607F14807BD4680BD90B58DB0CC
:1019100002AFF860B9607A603B604FF000033B6251
:101920004FF00003FB614FF00003BB614FF001007B
:101930004FF0050107F0A2FA03467B614FF0000368
:101940003B61FB68002B00F0A981FB684FF00002AF
:101950001A70A3E17B681B78252B10D07B681A785E
:10196000FB681A70FB6803F10103FB607B6803F1FD
:1019700001037B60FB6903F10103FB618FE17B687D
:1019800003F101031B78252B10D1FB684FF02502D2
:101990001A70FB6803F10103FB607B6803F102032B
:1019A0007B60FB6903F10103FB6178E14FF02003E9
:1019B00087F827304FF0000387F826307B6803F163
:1019C00001037B607B681B78302B07D14FF030031D
:1019D00087F827307B6803F101037B607B681B7805
:1019E0002E2B44D17B6803F1FF331B78252B3ED18E
:1019F0007B6803F101037B6007E0BB6903F101032E
:101A0000BB617B6803F101037B607B681B782F2B34
:101A100003D97B681B78392BEFD9BB69C3F100036D
:101A20007A68D218BB69786911461A4607F0E2FF56
:101A30007861786907F01EFA38614FF00003BB61E6
:101A400015E097F826301A464FEA8202D3184FEA7B
:101A50004303DAB27B681B78D318DBB2A3F13003FF
:101A600087F826307B6803F101037B6000E000BF4C
:101A70007B681B782F2B03D97B681B78392BE0D927
:101A800097F82620FB69D3181A46BB689A4206D9F4
:101A9000BB68DAB2FB69DBB2D31A87F826307B6801
:101AA0001B78A3F14C032C2B00F2E28001A252F828
:101AB00023F000BF451C0008711C0008711C0008C1
:101AC000711C0008711C0008711C0008711C0008C2
:101AD000711C0008711C0008711C0008711C0008B2
:101AE000711C0008F31B0008711C0008711C000821
:101AF000711C0008711C0008711C0008711C000892
:101B0000711C0008711C0008711C0008711C000881
:101B10002D1C0008971B0008711C0008691B000899
:101B2000711C0008711C0008971B0008711C00083C
:101B3000711C0008711C0008711C0008711C000851
:101B4000711C0008711C0008711C0008711C000841
:101B5000171C0008711C0008B31B0008711C00084A
:101B6000711C0008CF1B000897F826403B6803F162
:101B7000070323F0070303F108023A60D3E90023C7
:101B800097F82710CDE90023F86822463B69FFF754
:101B9000DDFD386275E097F826203B6803F104010B
:101BA00039601B6897F82710F868FFF78FFC3862D8
:101BB00067E097F826203B6803F1040139601B6851
:101BC00097F82710F868FFF7C1FB386259E097F8DB
:101BD00026203B6803F104013960196897F8273023
:101BE0000091F86819464FF00003FFF705FD3862D1
:101BF00047E097F826203B6803F104013960196833
:101C000097F827300091F86819464FF00103FFF765
:101C1000F3FC386235E03B6803F104023A601B686C
:101C2000F8681946FFF76EFB38622AE03B6803F15B
:101C300004023A601B68DBB2F8681946FFF750FBF4
:101C400038621EE097F826403B6803F1070323F053
:101C5000070303F108023A60D3E9002397F827103D
:101C6000CDE90023F8682246FFF7CEFB386208E092
:101C70004DF27460C0F6000000F0C4F84FF0FF337E
:101C80002CE07B6803F101037B603B6AFA68D318A0
:101C9000FB60FA693B6AD318FB6100E000BF7B6818
:101CA0001B78002B04D0FA69BB689A42FFF452AE4D
:101CB000FA69BB689A4204D2FB684FF000021A70BE
:101CC0000BE0FB6803F1FF33FB60FB684FF00002A1
:101CD0001A70FB6903F1FF33FB61FB69184607F1DA
:101CE0002C07BD4690BD00BF80B584B000AFF86042
:101CF000B9607A60F8684FF06401BA687B68FFF7F2
:101D000005FE0346184607F11007BD4680BD00BF1B
:101D1000B0B5A6B000AFF860B9607A604DF27C63F0
:101D2000C0F6000307F110041D460FCD0FC40FCD00
:101D30000FC42B68236007F134031846B9687A682A
:101D4000FFF7D2FF0346632B0CDD40F23843C2F2AB
:101D500000031B68DB6807F110021046194600F00B
:101D600091F8FEE707F134031846F96800F08AF8A5
:101D70000346184607F19807BD46B0BD80B582B04E
:101D800000AF7860396040F23843C2F200031B684C
:101D90009B68184679683A68FFF7BAFF0346184609
:101DA00007F10807BD4680BD0FB480B582B000AF13
:101DB00007F114033B6038693968FFF7DFFF78608B
:101DC0007B68184607F10807BD46BDE8804004B0AF
:101DD000704700BF0EB480B585B000AF786007F1E2
:101DE0002003BB607868F969BA68FFF77DFFF86087
:101DF000FB68184607F11407BD46BDE8804003B0F4
:101E0000704700BF80B584B000AF786040F23843BF
:101E1000C2F200031B689B687868194600F032F82C
:101E2000F8604FF00A00FFF74DFAFB68184607F11B
:101E30001007BD4680BD00BF80B582B000AF78609E
:101E4000396040F23843C2F200031B689A683B686D
:101E50009A4208D040F23843C2F200031B68DA68A5
:101E60003B689A4206D17B68DBB21846FFF72AFA34
:101E70007B6801E04FF0FF33184607F10807BD46C5
:101E800080BD00BF80B584B000AF786039604FF08E
:101E90000003FB6014E07B681B7818463968FFF785
:101EA000CBFF0346B3F1FF3F02D14FF0FF330CE00D
:101EB000FB6803F10103FB607B6803F101037B60B6
:101EC0007B681B78002BE6D1FB68184607F11007EA
:101ED000BD4680BD90B589B000AF78604FF000037B
:101EE000FB614FF00003BB614FF000037B6117E023
:101EF0007B697A68D3181B78282B03D1FB6903F11F
:101F00000103FB617B697A68D3181B78292B03D105
:101F1000BB6903F10103BB617B6903F101037B61D1
:101F20007C69786807F036FD03469C42E0D3BA69C5
:101F3000FB699A4235D1FA69BB69D318FB60FB682B
:101F4000002B2BD04FF000033B614FF000037B616F
:101F50001DE03B69002B02DA4FF0FF3323E07B6981
:101F60007A68D3181B78282B03D13B6903F101034E
:101F70003B617B697A68D3181B78292B03D13B69B5
:101F800003F1FF333B617B6903F101037B617C69F2
:101F9000786807F0FFFC03469C42DAD34FF0010358
:101FA00001E04FF0FF33184607F12407BD4690BD0E
:101FB00090B585B000AF78600B46FB707B681B78EE
:101FC000FA789A420BD0786807F0E4FC034603F1F4
:101FD000FF337A68D3181B78FA789A4202D14FF00F
:101FE000FF337DE04FF00103FB606EE0FB687A6831
:101FF000D3181B78FA789A4263D1FB6803F1FF3358
:102000007A68D3181B782F2B17D9FB6803F1FF339D
:102010007A68D3181B78392B0FD8FB6803F10103BA
:102020007A68D3181B782F2B07D9FB6803F10103BB
:102030007A68D3181B78392B42D9FB6803F1FF3338
:102040007A68D3181B782F2B0FD9FB6803F1FF3365
:102050007A68D3181B78392B07D8FB6803F1010382
:102060007A68D3181B78282B2AD0FB6803F1010368
:102070007A68D3181B782F2B0FD9FB6803F1010363
:102080007A68D3181B78392B07D8FB6803F1FF3324
:102090007A68D3181B78292B12D0FB6803F1FF3321
:1020A0007A68D3181B78292B07D1FB6803F1010349
:1020B0007A68D3181B78282B02D04FF0FF330FE03B
:1020C00000BFFB6803F10103FB60FC68786807F060
:1020D00061FC034603F1FF339C4287D34FF00103B9
:1020E000184607F11407BD4690BD00BF90B585B0F6
:1020F00000AF78600B46FB70786807F04BFC034636
:1021000003F1FF337A68D3181B78FA789A4202D128
:102110004FF0FF338EE04FF00103FB607EE0FB6881
:102120007A68D3181B78FA789A4273D1FB6803F166
:10213000FF337A68D3181B782F2B17D9FB6803F16C
:10214000FF337A68D3181B78392B0FD8FB6803F15B
:1021500001037A68D3181B782F2B07D9FB6803F18A
:1021600001037A68D3181B78392B52D9FB6803F125
:10217000FF337A68D3181B784DF2A060C0F60000D8
:10218000194607F03DFA0346002B0FD1FB6803F117
:1021900001037A68D3181B782F2B07D9FB6803F14A
:1021A00001037A68D3181B78392B32D9FB6803F105
:1021B00001037A68D3181B784DF2A060C0F60000C6
:1021C000194607F01DFA0346002B0FD1FB6803F1F7
:1021D000FF337A68D3181B782F2B07D9FB6803F1DC
:1021E000FF337A68D3181B78392B12D9FB6803F1B7
:1021F000FF337A68D3181B78292B0AD0FB6803F1C8
:1022000001037A68D3181B78282B02D04FF0FF33D4
:1022100010E000BFFB6803F10103FB60FC68786815
:1022200007F0B8FB034603F1FF339C42FFF477AF9E
:102230004FF00103184607F11407BD4690BD00BFDB
:1022400090B585B000AF78604FF00003FB603DE0D3
:10225000FB687A68D3181B784DF2A860C0F60000BE
:10226000194607F0CDF90346002B2BD04FF00003A1
:10227000BB6013E0FB687A68D3181B782E2B09D15A
:10228000BB6803F10103BB60BB68012B02DD4FF0AB
:10229000FF3324E0FB6803F10103FB60FB687A680D
:1022A000D3181B784DF2A860C0F60000194607F05D
:1022B000A7F90346002BDDD1FB687A68D3181B7899
:1022C0002E2BD7D0FB6803F10103FB60FC68786814
:1022D00007F060FB03469C42BAD34FF00103184657
:1022E00007F11407BD4690BD80B582B000AF78609D
:1022F00078684DF2B461C0F6000107F0EDFD0346C9
:10230000002B02D04FF0FF3301E04FF001031846DD
:1023100007F10807BD4680BD80B582B000AF4FF021
:1023200018004FF00101FEF75FF84FF001004FF089
:102330000101FEF783F84FF44060C4F202004FF051
:1023400000014FF00C0202F047FF4FF44060C4F26E
:1023500002004FF001014FF00C0202F03DFF4FF47C
:102360004060C4F202004FF004014FF00C0202F092
:1023700033FF4FF44060C4F202004FF005014FF00C
:102380000C0202F029FF4FF44060C4F202004FF04B
:1023900008014FF00C0202F01FFF4FF44060C4F23E
:1023A00002004FF009014FF00C0202F015FF4FF44C
:1023B0004060C4F202004FF00A014FF00C0202F03C
:1023C0000BFF4FF44060C4F202004FF00B014FF0DE
:1023D0000C0202F001FF4FF44060C4F202004FF023
:1023E0000E014FF00C0202F0F7FE4FF44060C4F211
:1023F00002004FF00F014FF00C0202F0EDFE4CF620
:1024000033733B604FF002033B714FF003037B716A
:102410004FF00003BB714FF00103FB713B464FF4DB
:102420004060C4F20200194602F0FAFD4FF48050F9
:10243000C4F202004FF002014FF00C0202F0CCFE99
:102440004FF48050C4F202004FF007014FF00C022D
:1024500002F0C2FE4FF48050C4F202004FF00801B7
:102460004FF00C0202F0B8FE4FF48050C4F20200AC
:102470004FF009014FF00C0202F0AEFE4FF4805015
:10248000C4F202004FF00A014FF00C0202F0A4FE69
:102490004FF48050C4F202004FF00B014FF00C02D9
:1024A00002F09AFE4FF48050C4F202004FF00C018B
:1024B0004FF00C0202F090FE4FF48050C4F2020084
:1024C0004FF00D014FF00C0202F086FE4FF48050E9
:1024D000C4F202004FF00E014FF00C0202F07CFE3D
:1024E0004FF48050C4F202004FF00F014FF00C0285
:1024F00002F072FE4FF684733B603B464FF480500F
:10250000C4F20200194602F08BFD4FF008004FF0B4
:102510000101FDF769FF4FF080033B604FF00103BD
:102520003B714FF00003BB714FF003037B714FF021
:102530000103FB713B464FF44060C4F202001946B0
:1025400002F06EFD4FF44060C4F202004FF08001D3
:1025500002F034FE07F10807BD4680BD80B596B095
:1025600000AF4FF00003FB614FF000033B624FF000
:1025700000037B624FF01003BB624FF00003FB626D
:102580004FF000037B634FF00003BB634FF0000389
:10259000FB634FF480533B644FF000037B644FF0C8
:1025A00000033B634FF00003BB644FF00003FB6488
:1025B0003B463B654FF00F033B604FF000037B60F1
:1025C0004FF00F03BB604FF00003FB604FF00003C0
:1025D0003B614FF000037B614FF00003BB613B4662
:1025E0007B6507F11C03184602F048FC4FF0000021
:1025F0004FF0010102F0EAFC07F15807BD4680BD2B
:1026000080B582B000AF4FF6FF73C0F21F037B604E
:10261000FFF782FE00BF7B68002B0CBF0023012365
:10262000DBB27A6802F1FF327A60002BF3D1FFF758
:1026300095FF07F10807BD4680BD00BF80B485B097
:1026400000AF0346FB804FF00003FB8110E04FF02A
:102650000003BB8103E0BB8903F10103BB81BA899D
:1026600040F274439A42F6D9FB8903F10103FB81DE
:10267000FA89FB889A42EAD307F11407BD4680BC69
:10268000704700BF80B500AFFFF7BAFF40F66A336E
:10269000C2F2000340F223121A804FF0000002F051
:1026A000DBFB03461A4640F66A33C2F200031A8087
:1026B00040F66A33C2F200031A8849F225339A427F
:1026C00009D040F66A33C2F200031A8849F228336F
:1026D0009A4240F0718140F6E023C2F200034FF0CD
:1026E00001021A704FF0E7004FF0100102F0A0FB5A
:1026F0004FF000004FF0010102F09AFB4FF0010093
:102700004FF4807102F094FB4FF002004FF4E0614F
:1027100002F08EFB4FF0030041F2300102F088FB23
:102720004FF004004FF0000102F082FB4FF0080070
:1027300040F2072102F07CFB4FF009004FF000014E
:1027400002F076FB4FF00A004FF0000102F070FB40
:102750004FF00C004FF0010102F06AFB4FF00D004A
:102760004FF0000102F064FB4FF00F004FF000014A
:1027700002F05EFB4FF010004FF0000102F058FB3A
:102780004FF011004FF0070102F052FB4FF0120022
:102790004FF0000102F04CFB4FF013004FF000012E
:1027A00002F046FB4FF03200FFF748FF4FF01000F9
:1027B00041F2905102F03CFB4FF0110040F2272112
:1027C00002F036FB4FF03200FFF738FF4FF01200F7
:1027D0004FF09C0102F02CFB4FF03200FFF72EFF70
:1027E0004FF013004FF4C85102F022FB4FF02900C4
:1027F0004FF0230102F01CFB4FF02B004FF00E01B5
:1028000002F016FB4FF03200FFF718FF4FF02000E8
:102810004FF0000102F00CFB4FF021004FF00001DF
:1028200002F006FB4FF03200FFF708FF4FF03000D8
:102830004FF0070102F0FCFA4FF0310040F207714F
:1028400002F0F6FA4FF032004FF0060102F0F0FA13
:102850004FF0350040F2047102F0EAFA4FF0360012
:1028600041F6047102F0E4FA4FF037004FF0040132
:1028700002F0DEFA4FF038004FF0000102F0D8FA13
:102880004FF0390040F2067102F0D2FA4FF03C00EE
:1028900040F2017102F0CCFA4FF03D004FF00F0111
:1028A00002F0C6FA4FF03200FFF7C8FE4FF05000BA
:1028B0004FF0000102F0BCFA4FF051004FF0EF0171
:1028C00002F0B6FA4FF052004FF0000102F0B0FAF9
:1028D0004FF0530040F23F1102F0AAFA4FF06000AF
:1028E0004FF4274102F0A4FA4FF061004FF00101CC
:1028F00002F09EFA4FF06A004FF0000102F098FAE1
:102900004FF080004FF0000102F092FA4FF081008A
:102910004FF0000102F08CFA4FF082004FF00001FE
:1029200002F086FA4FF083004FF0000102F080FAC7
:102930004FF084004FF0000102F07AFA4FF085006A
:102940004FF0000102F074FA4FF090004FF01001C8
:1029500002F06EFA4FF092004FF0000102F068FAB8
:102960004FF093004FF0030102F062FA4FF0950030
:102970004FF4887102F05CFA4FF097004FF00001BD
:1029800002F056FA4FF098004FF0000102F050FAB2
:102990004FF0070040F2331102F04AFA4FF02000E6
:1029A0004FF0000102F044FA4FF021004FF0000117
:1029B00002F03EFA01F081BE40F66A33C2F2000333
:1029C0001A8849F220339A4208D040F66A33C2F29C
:1029D00000031B88B3F5134F40F0F58040F6E02369
:1029E000C2F200034FF000021A704FF000004FF0E7
:1029F000000102F01DFA4FF001004FF4807102F067
:102A000017FA4FF002004FF4E06102F011FA4FF0B4
:102A1000030041F2180102F00BFA4FF004004FF0EE
:102A2000000102F005FA4FF0080040F2022102F026
:102A3000FFF94FF009004FF0000102F0F9F94FF0F3
:102A40000A004FF0000102F0F3F94FF00C004FF0D4
:102A5000010102F0EDF94FF00D004FF0000102F01E
:102A6000E7F94FF00F004FF0000102F0E1F94FF0ED
:102A70006400FFF7E3FD4FF0070040F2011102F0A0
:102A8000D7F94FF06400FFF7D9FD4FF010004FF475
:102A9000865102F0CDF94FF011004FF0070102F01E
:102AA000C7F94FF012004FF4887102F0C1F94FF0EE
:102AB00013004FF4306102F0BBF94FF029004FF0E2
:102AC000000102F0B5F94FF02B0044F2100102F0C2
:102AD000AFF94FF050004FF0000102F0A9F94FF0AC
:102AE00051004FF0EF0102F0A3F94FF052004FF008
:102AF000000102F09DF94FF0530040F23F1102F047
:102B000097F94FF060004FF41C5102F091F94FF02B
:102B100061004FF0010102F08BF94FF06A004FF0B5
:102B2000000102F085F94FF080004FF0000102F043
:102B30007FF94FF081004FF0000102F079F94FF07A
:102B400082004FF0000102F073F94FF083004FF064
:102B5000000102F06DF94FF084004FF0000102F027
:102B600067F94FF085004FF0000102F061F94FF076
:102B700090004FF0100102F05BF94FF092004FF01F
:102B8000000102F055F94FF093004FF0010102F0FF
:102B90004FF94FF095004FF4887102F049F94FF06A
:102BA00097004FF0000102F043F94FF098004FF00A
:102BB000000102F03DF94FF0070040F2731102F0FE
:102BC00037F901F07ABD40F66A33C2F200031A8881
:102BD00049F231339A4240F04D8140F6E023C2F28F
:102BE00000034FF003021A704FF0E70041F21401A6
:102BF00002F01EF94FF001004FF4807102F018F955
:102C00004FF002004FF4007102F012F94FF0030090
:102C100041F2300102F00CF94FF0080040F20221BD
:102C200002F006F94FF009004FF0000102F000F940
:102C30004FF00A004FF0000102F0FAF84FF00C00DC
:102C40004FF0000102F0F4F84FF00D004FF00001DA
:102C500002F0EEF84FF00F004FF0000102F0E8F83C
:102C60004FF010004FF0000102F0E2F84FF01100B9
:102C70004FF0070102F0DCF84FF012004FF00001B6
:102C800002F0D6F84FF013004FF0000102F0D0F838
:102C90004FF0C800FFF7D2FC4FF0100041F29061F6
:102CA00002F0C6F84FF0110040F2272102F0C0F800
:102CB0004FF03200FFF7C2FC4FF012004FF00C0152
:102CC00002F0B6F84FF03200FFF7B8FC4FF01300F7
:102CD0004FF4006102F0ACF84FF029004FF0110101
:102CE00002F0A6F84FF02B004FF00B0102F0A0F815
:102CF0004FF03200FFF7A2FC4FF020004FF0000130
:102D000002F096F84FF021004FF0000102F090F829
:102D10004FF030004FF0000102F08AF84FF0310020
:102D20004FF4837102F084F84FF032004FF000014D
:102D300002F07EF84FF035004FF4017102F078F8A0
:102D40004FF0360041F20A6102F072F84FF037009E
:102D500040F2077102F06CF84FF038004FF48371C5
:102D600002F066F84FF0390040F2077102F060F8A7
:102D70004FF03C0040F2024102F05AF84FF03D00A3
:102D800040F60F4102F054F84FF050004FF00001B0
:102D900002F04EF84FF051004FF0EF0102F048F80A
:102DA0004FF052004FF0000102F042F84FF0530094
:102DB00040F23F1102F03CF84FF060004FF41C511C
:102DC00002F036F84FF061004FF0010102F030F8E8
:102DD0004FF06A004FF0000102F02AF84FF0800037
:102DE0004FF0000102F024F84FF081004FF0000195
:102DF00002F01EF84FF082004FF0000102F018F8C8
:102E00004FF083004FF0000102F012F84FF0840001
:102E10004FF0000102F00CF84FF085004FF0000178
:102E200002F006F84FF090004FF0100102F000F8A9
:102E30004FF092004FF4C06101F0FAFF4FF007002D
:102E40004FF0210101F0F4FF4FF03200FFF7F6FBE5
:102E50004FF007004FF0610101F0EAFF4FF0320040
:102E6000FFF7ECFB4FF0070040F2331101F0E0FFF9
:102E700001F023BC40F66A33C2F200031A8849F617
:102E800019139A4240F0BD8040F6E023C2F20003DD
:102E90004FF00D021A704FF028004FF0060101F0BC
:102EA000C7FF4FF000004FF0010101F0C1FF4FF0EC
:102EB00010004FF0000101F0BBFF4FF0010047F29E
:102EC000EF2101F0B5FF4FF002004FF4C06101F0B7
:102ED000AFFF4FF0030046F6382101F0A9FF4FF095
:102EE000110046F6740101F0A3FF4FF00F004FF000
:102EF000000101F09DFF4FF00B0045F2083101F099
:102F000097FF4FF00C004FF0030101F091FF4FF0DD
:102F10000D004FF00A0101F08BFF4FF00E004FF44F
:102F2000385101F085FF4FF01E004FF0BE0101F057
:102F30007FFF4FF025004FF4004101F079FF4FF083
:102F400026004FF4F04101F073FF4FF027004FF0DF
:102F5000780101F06DFF4FF04E004FF0000101F0DD
:102F600067FF4FF04F004FF0000101F061FF4FF09D
:102F7000120040F6D90101F05BFF4FF030004FF036
:102F8000000101F055FF4FF031004FF4827101F064
:102F90004FFF4FF032004FF4807101F049FF4FF0C6
:102FA000330040F2053101F043FF4FF0340040F2AE
:102FB000055101F03DFF4FF0350040F2053101F0C1
:102FC00037FF4FF0360040F2077101F031FF4FF04C
:102FD00037004FF4407101F02BFF4FF03A004FF4EF
:102FE000905101F025FF4FF03B004FF4006101F0DC
:102FF0001FFF4FF007004FF0330101F019FF01F000
:103000005CBB40F66A33C2F200031A8841F20553F2
:103010009A4209D040F66A33C2F200031A8840F29D
:1030200005539A4240F07F8140F6E023C2F200034C
:103030004FF009021A704FF007004FF0000101F045
:10304000F7FE4FF03200FFF7F9FA4FF012004FF49D
:103050008E7101F0EDFE4FF0A4004FF0010101F080
:10306000E7FE4FF008004FF00F0101F0E1FE4FF0D6
:103070000A004FF0080101F0DBFE4FF00D004FF0A9
:10308000080101F0D5FE4FF0300040F2077101F069
:10309000CFFE4FF031004FF0070101F0C9FE4FF0B5
:1030A000320040F2036101F0C3FE4FF033004FF4F1
:1030B000E06101F0BDFE4FF0340040F2022101F06A
:1030C000B7FE4FF035004FF0020101F0B1FE4FF0B6
:1030D000360041F60F7101F0ABFE4FF0370040F2C1
:1030E000077101F0A5FE4FF038004FF0000101F02C
:1030F0009FFE4FF039004FF0000101F099FE4FF0B4
:103100003A0040F2077101F093FE4FF03B004FF0A0
:10311000000101F08DFE4FF03C004FF0070101F07F
:1031200087FE4FF03D004FF0000101F081FE4FF0AF
:103130003200FFF783FA4FF007004FF0010101F072
:1031400077FE4FF017004FF0010101F071FE4FF0D4
:103150003200FFF773FA4FF010004FF4BD5101F049
:1031600067FE4FF0110040F2172101F061FE4FF0B1
:1031700012004FF48F7101F05BFE4FF013004FF41B
:10318000706101F055FE4FF02A004FF0000101F090
:103190004FFE4FF029004FF00A0101F049FE4FF0B9
:1031A00012004FF49F7101F043FE4FF050004FF0BA
:1031B000000101F03DFE4FF051004FF0EF0101F032
:1031C00037FE4FF052004FF0000101F031FE4FF09A
:1031D000530040F23F1101F02BFE4FF060004FF41E
:1031E0001C5101F025FE4FF061004FF0010101F08C
:1031F0001FFE4FF06A004FF0000101F019FE4FF082
:1032000080004FF0000101F013FE4FF081004FF0FD
:10321000000101F00DFE4FF082004FF0000101F0BF
:1032200007FE4FF083004FF0000101F001FE4FF068
:1032300084004FF0000101F0FBFD4FF085004FF0DE
:10324000000101F0F5FD4FF090004FF0130101F087
:10325000EFFD4FF092004FF4407101F0E9FD4FF0A7
:1032600093004FF0050101F0E3FD4FF095004FF0A2
:10327000000101F0DDFD4FF097004FF0000101F07B
:10328000D7FD4FF098004FF0000101F0D1FD4FF055
:1032900001004FF4807101F0CBFD4FF002004FF4BC
:1032A000E06101F0C5FD4FF0030041F2300101F093
:1032B000BFFD4FF004004FF0000101F0B9FD4FF0E9
:1032C0000C004FF0000101F0B3FD4FF00F004FF084
:1032D000000101F0ADFD4FF020004FF0000101F0C2
:1032E000A7FD4FF021004FF0000101F0A1FD4FF0CC
:1032F00007004FF0210101F09BFD4FF0C800FFF7E0
:103300009DF94FF007004FF0610101F091FD4FF082
:10331000C800FFF793F94FF0070040F2731101F076
:1033200087FD01F0CAB940F66A33C2F200031A8879
:1033300048F689139A4240F0A18140F6E023C2F298
:1033400000034FF005021A704FF000004FF001012A
:1033500001F06EFD4FF03200FFF770F94FF00300FF
:103360004AF6A40101F064FD4FF03200FFF766F960
:103370004FF00C004FF0000101F05AFD4FF0320009
:10338000FFF75CF94FF00D0040F60C0101F050FD25
:103390004FF03200FFF752F94FF00E004FF42C516E
:1033A00001F046FD4FF03200FFF748F94FF01E00E4
:1033B0004FF0B00101F03CFD4FF03200FFF73EF955
:1033C0004FF0010042F63F3101F032FD4FF0320084
:1033D000FFF734F94FF002004FF4C06101F028FD0F
:1033E0004FF03200FFF72AF94FF010004FF00001C4
:1033F00001F01EFD4FF03200FFF720F94FF01100F1
:1034000046F2700101F014FD4FF03200FFF716F99B
:103410004FF005004FF0000101F00AFD4FF03200BF
:10342000FFF70CF94FF006004FF0000101F000FD2E
:103430004FF03200FFF702F94FF016004EF61C7104
:1034400001F0F6FC4FF03200FFF7F8F84FF01700EC
:103450004FF0030101F0ECFC4FF03200FFF7EEF803
:103460004FF0070040F2331101F0E2FC4FF0320060
:10347000FFF7E4F84FF00B004FF0000101F0D8FC2B
:103480004FF03200FFF7DAF84FF00F004FF0000175
:1034900001F0CEFC4FF03200FFF7D0F84FF04100C2
:1034A0004FF0000101F0C4FC4FF03200FFF7C6F806
:1034B0004FF042004FF0000101F0BAFC4FF0320033
:1034C000FFF7BCF84FF048004FF0000101F0B0FCEE
:1034D0004FF03200FFF7B2F84FF0490040F23F11D1
:1034E00001F0A6FC4FF03200FFF7A8F84FF04A00B9
:1034F0004FF0000101F09CFC4FF03200FFF79EF806
:103500004FF04B004FF0000101F092FC4FF0320001
:10351000FFF794F84FF044004FF46F4101F088FC3E
:103520004FF03200FFF78AF84FF045004FF00001EE
:1035300001F07EFC4FF03200FFF780F84FF04600BC
:1035400040F23F1101F074FC4FF03200FFF776F8C3
:103550004FF0300040F2077101F06AFC4FF032008A
:10356000FFF76CF84FF031004FF4017101F060FC8F
:103570004FF03200FFF762F84FF032004FF4017164
:1035800001F056FC4FF03200FFF758F84FF03300CF
:1035900040F2025101F04CFC4FF03200FFF74EF8C0
:1035A0004FF0340040F2075101F042FC4FF032007E
:1035B000FFF744F84FF035004FF4017101F038FC8B
:1035C0004FF03200FFF73AF84FF036004FF4017138
:1035D00001F02EFC4FF03200FFF730F84FF03700CB
:1035E00040F2025101F024FC4FF03200FFF726F8C0
:1035F0004FF03A0040F2023101F01AFC4FF0320075
:10360000FFF71CF84FF03B0040F2023101F010FCD4
:103610004FF03200FFF712F84FF023004FF0000197
:1036200001F006FC4FF03200FFF708F84FF02400DD
:103630004FF0000101F0FCFB4FF03200FEF7FEFFFF
:103640004FF025004FF4004101F0F2FB4FF0320043
:10365000FEF7F4FF4FF04F004FF0000101F0E8FBE0
:103660004FF04E004FF0000101F0E2FB4FF011006F
:1036700046F2680101F0DCFB01F01FB840F66A3346
:10368000C2F200031A8848F699139A4240F0118159
:1036900040F6E023C2F200034FF004021A704FF02C
:1036A00028004FF0060101F0C3FB4FF000004FF07F
:1036B000010101F0BDFB4FF003004AF6A46101F0E7
:1036C000B7FB4FF00C004FF0040101F0B1FB4FF0DD
:1036D0000D004FF00C0101F0ABFB4FF00E004FF46A
:1036E000205101F0A5FB4FF01E004FF0B50101F095
:1036F0009FFB4FF0010043F63F3101F099FB4FF083
:1037000002004FF4C06101F093FB4FF010004FF046
:10371000000101F08DFB4FF0110046F6300101F081
:1037200087FB4FF005004FF0000101F081FB4FF0E7
:1037300006004FF0000101F07BFB4FF016004EF643
:103740001C7101F075FB4FF007004FF0330101F0E1
:103750006FFB4FF00B004FF0000101F069FB4FF0E1
:103760000F004FF0000101F063FB4FF041004FF0FC
:10377000000101F05DFB4FF042004FF0000101F04D
:1037800057FB4FF048004FF0000101F051FB4FF0A4
:10379000490040F23F1101F04BFB4FF04A004FF05F
:1037A000000101F045FB4FF04B004FF0000101F02C
:1037B0003FFB4FF044004FF46F4101F039FB4FF0F5
:1037C00045004FF0000101F033FB4FF0460040F29E
:1037D0003F1101F02DFB4FF04E004FF0000101F0C2
:1037E00027FB4FF04F004FF0000101F021FB4FF09D
:1037F000300040F2077101F01BFB4FF0310040F246
:10380000022101F015FB4FF032004FF4017101F07D
:103810000FFB4FF0330040F2025101F009FB4FF073
:10382000340040F2075101F003FB4FF035004FF434
:10383000017101F0FDFA4FF036004FF4017101F013
:10384000F7FA4FF0370040F2025101F0F1FA4FF071
:103850003A0040F2023101F0EBFA4FF03B0040F247
:10386000023101F0E5FA4FF023004FF0000101F0C2
:10387000DFFA4FF024004FF0000101F0D9FA4FF0C9
:1038800025004FF4004101F0D3FA4FF026004FF429
:10389000E04101F0CDFA4FF020004BF2EB0101F0D6
:1038A000C7FA4FF027004FF07C0101F0C1FA00F099
:1038B00004BF40F66A33C2F200031A8845F2084397
:1038C0009A4240F0EF8040F6E023C2F200034FF04E
:1038D00008021A704FF001004FF4807101F0A8FA4D
:1038E0004FF002004FF4E06101F0A2FA4FF0030044
:1038F00041F2300101F09CFA4FF004004FF000015A
:1039000001F096FA4FF0080040F2072101F090FA1A
:103910004FF009004FF0000101F08AFA4FF00A0061
:103920004FF0000101F084FA4FF00C004FF000015D
:1039300001F07EFA4FF00D004FF0000101F078FA2F
:103940004FF00F004FF0000101F072FA4FF032001B
:10395000FEF774FE4FF0070040F2011101F068FA23
:103960004FF03200FEF76AFE4FF0100041F2B061F6
:1039700001F05EFA4FF011004FF0010101F058FA2A
:103980004FF017004FF0010101F052FA4FF0120012
:103990004FF49C7101F04CFA4FF013004FF40061AA
:1039A00001F046FA4FF029004FF0090101F040FA0A
:1039B0004FF02A004FF0090101F03AFA4FF0A4004D
:1039C0004FF0000101F034FA4FF050004FF00001C9
:1039D00001F02EFA4FF051004FF0EF0101F028FAFC
:1039E0004FF052004FF0000101F022FA4FF0530067
:1039F00040F23F1101F01CFA4FF060004FF41C51EF
:103A000001F016FA4FF061004FF0030101F010FAD7
:103A10004FF06A004FF0000101F00AFA4FF0800009
:103A20004FF0000101F004FA4FF081004FF0000167
:103A300001F0FEF94FF082004FF0000101F0F8F9BB
:103A40004FF083004FF0000101F0F2F94FF08400D5
:103A50004FF0000101F0ECF94FF085004FF000014C
:103A600001F0E6F94FF090004FF0130101F0E0F99A
:103A70004FF092004FF0000101F0DAF94FF093009F
:103A80004FF0030101F0D4F94FF095004FF4887125
:103A900001F0CEF94FF0070040F2731101F0C8F9C0
:103AA00000F00BBE40F66A33C2F200031A8844F2FB
:103AB00031539A4240F0E38040F6E023C2F2000323
:103AC0004FF007021A704FF000004FF0010101F0B3
:103AD000AFF94FF010004FF4C56101F0A9F94FF0B4
:103AE00012004FF0060101F0A3F94FF0130040F669
:103AF000322101F09DF94FF011004FF0400101F02B
:103B000097F94FF015004FF0500101F091F94FF087
:103B100012004FF0160101F08BF94FF03200FEF762
:103B20008DFD4FF0100045F2606101F081F94FF01A
:103B30003200FEF783FD4FF0130042F64E2101F0F4
:103B400077F94FF001004FF4807101F071F94FF0F7
:103B500002004FF4407101F06BF94FF0030041F2A5
:103B6000300101F065F94FF0080040F2022101F048
:103B70005FF94FF00A004FF0000101F059F94FF0E2
:103B800030004FF0000101F053F94FF0310040F2E6
:103B9000024101F04DF94FF032004FF4837101F012
:103BA00047F94FF033004FF4E06101F041F94FF075
:103BB00034004FF4827101F03BF94FF0350040F2D0
:103BC000013101F035F94FF0360040F2077101F094
:103BD0002FF94FF0370040F2053101F029F94FF08D
:103BE00038004FF4027101F023F94FF0390040F62C
:103BF0000B7101F01DF94FF03200FEF71FFD4FF081
:103C000041004FF0020101F013F94FF060004FF452
:103C10001C5101F00DF94FF061004FF0010101F06E
:103C200007F94FF0900040F2191101F001F94FF03F
:103C300092004FF4857101F0FBF84FF093004FF0C4
:103C4000040101F0F5F84FF0A0004FF4807101F08D
:103C5000EFF84FF03200FEF7F1FC4FF0070040F2B2
:103C6000331101F0E5F84FF03200FEF7E7FC4FF0BA
:103C7000A0004FF0000101F0DBF800F01EBD40F69F
:103C80006A33C2F200031A8844F235539A4240F074
:103C9000ED8040F6E023C2F200034FF00C021A70F0
:103CA0004FF015004FF0300101F0C2F84FF09A00CC
:103CB0004FF0100101F0BCF84FF011004FF020015F
:103CC00001F0B6F84FF0100043F2284101F0B0F8CF
:103CD0004FF012004FF0020101F0AAF84FF013006C
:103CE00041F2380101F0A4F84FF02800FEF7A6FCDD
:103CF0004FF012004FF0120101F09AF84FF0280037
:103D0000FEF79CFC4FF0100043F2204101F090F8C8
:103D10004FF0130043F2450101F08AF84FF04600DE
:103D2000FEF78CFC4FF030004FF0000101F080F8FE
:103D30004FF0310040F2024101F07AF84FF03200CA
:103D400040F2073101F074F84FF033004FF4417145
:103D500001F06EF84FF034004FF0040101F068F804
:103D60004FF0350040F2014101F062F84FF03600AB
:103D700040F2077101F05CF84FF0370040F2053176
:103D800001F056F84FF038004FF4C26101F050F8DE
:103D90004FF039004FF4C26101F04AF84FF00100D2
:103DA0004FF4807101F044F84FF002004FF440717D
:103DB00001F03EF84FF0030041F2300101F038F815
:103DC0004FF0080040F6080101F032F84FF00A0009
:103DD0004FF0080101F02CF84FF060004FF41C5137
:103DE00001F026F84FF061004FF0010101F020F8DA
:103DF0004FF090004FF49F7101F01AF84FF09200CD
:103E00004FF4807101F014F84FF093004FF480717B
:103E100001F00EF84FF0A0004FF4405101F008F807
:103E20004FF0A3004FF0100101F002F84FF007002F
:103E30004FF0010100F0FCFF4FF007004FF02101AF
:103E400000F0F6FF4FF007004FF0230100F0F0FF05
:103E50004FF007004FF0330100F0EAFF4FF007008A
:103E600040F2331100F0E4FF00F027BC40F66A3363
:103E7000C2F200031B88472B40F0548140F6E02338
:103E8000C2F200034FF00A021A704FF0EA004FF03E
:103E9000000100F0CDFF4FF0EB004FF0200100F0EB
:103EA000C7FF4FF0EC004FF00C0100F0C1FF4FF0E6
:103EB000ED004FF0C40100F0BBFF4FF0E8004FF001
:103EC000400100F0B5FF4FF0E9004FF0380100F07D
:103ED000AFFF4FF0F1004FF0010100F0A9FF4FF0EC
:103EE000F2004FF0100100F0A3FF4FF027004FF059
:103EF000A30100F09DFF4FF040004FF0010100F0E2
:103F000097FF4FF041004FF0000100F091FF4FF09C
:103F100042004FF0000100F08BFF4FF043004FF0E4
:103F2000100100F085FF4FF044004FF00E0100F04B
:103F30007FFF4FF045004FF0240100F079FF4FF074
:103F400046004FF0040100F073FF4FF047004FF0C0
:103F5000500100F06DFF4FF048004FF0020100F0FB
:103F600067FF4FF049004FF0130100F061FF4FF081
:103F70004A004FF0190100F05BFF4FF04B004FF08B
:103F8000190100F055FF4FF04C004FF0160100F002
:103F90004FFF4FF050004FF01B0100F049FF4FF072
:103FA00051004FF0310100F043FF4FF052004FF04D
:103FB0002F0100F03DFF4FF053004FF03F0100F0A4
:103FC00037FF4FF054004FF03F0100F031FF4FF04A
:103FD00055004FF03E0100F02BFF4FF056004FF020
:103FE0002F0100F025FF4FF057004FF07B0100F04C
:103FF0001FFF4FF058004FF0090100F019FF4FF07C
:1040000059004FF0060100F013FF4FF05A004FF037
:10401000060100F00DFF4FF05B004FF00C0100F0C7
:1040200007FF4FF05C004FF01D0100F001FF4FF063
:104030005D004FF0CC0100F0FBFE4FF01B004FF095
:10404000180100F0F5FE4FF01A004FF0010100F0EA
:10405000EFFE4FF024004FF0150100F0E9FE4FF0A5
:1040600025004FF0500100F0E3FE4FF023004FF029
:104070008B0100F0DDFE4FF018004FF0360100F02C
:10408000D7FE4FF019004FF0010100F0D1FE4FF0C4
:1040900001004FF0000100F0CBFE4FF01F004FF089
:1040A000880100F0C5FE4FF03200FEF7C7FA4FF06E
:1040B0001F004FF0800100F0BBFE4FF03200FEF712
:1040C000BDFA4FF01F004FF0900100F0B1FE4FF02D
:1040D0003200FEF7B3FA4FF01F004FF0D00100F0AE
:1040E000A7FE4FF03200FEF7A9FA4FF017004FF08D
:1040F000050100F09DFE4FF036004FF0000100F08A
:1041000097FE4FF028004FF0380100F091FE4FF07D
:104110003200FEF793FA4FF028004FF03C0100F018
:1041200087FECAE240F66A33C2F200031A8847F2F9
:1041300083739A4240F0FE8040F6E023C2F200030F
:104140004FF006021A704FF0FF004FF0010100F02F
:104150006FFE4FF0F3004FF0080100F069FE4FF0E2
:1041600001004FF4807100F063FE4FF002004FF445
:10417000E06100F05DFE4FF0030041F2300100F01D
:1041800057FE4FF0080040F2023100F051FE4FF0B0
:10419000080040F2072100F04BFE4FF009004FF0FD
:1041A000000100F045FE4FF00A004FF0000100F062
:1041B0003FFE4FF010004FF0000100F039FE4FF0CD
:1041C00011004FF0050100F033FE4FF012004FF0E8
:1041D000000100F02DFE4FF013004FF0000100F041
:1041E00027FE4FF03200FEF729FA4FF0100041F29F
:1041F000B02100F01DFE4FF03200FEF71FFA4FF025
:1042000011004FF0070100F013FE4FF03200FEF7EF
:1042100015FA4FF012004FF08B0100F009FE4FF03D
:104220003200FEF70BFA4FF013004FF4B85100F0D4
:10423000FFFD4FF03200FEF701FA4FF029004FF07A
:10424000220100F0F5FD4FF030004FF0000100F0CA
:10425000EFFD4FF0310040F2077100F0E9FD4FF043
:10426000320040F2055100F0E3FD4FF0350040F21E
:10427000071100F0DDFD4FF036004FF0080100F0AF
:10428000D7FD4FF037004FF0000100F0D1FD4FF0A7
:10429000380040F2022100F0CBFD4FF039004FF41E
:1042A000837100F0C5FD4FF03C0040F2022100F0A8
:1042B000BFFD4FF03D004FF4816100F0B9FD4FF0BC
:1042C0003200FEF7BBF94FF050004FF0000100F054
:1042D000AFFD4FF051004FF0EF0100F0A9FD4FF09E
:1042E00052004FF0000100F0A3FD4FF0530040F2E8
:1042F0003F1100F09DFD4FF060004FF4274100F0AA
:1043000097FD4FF061004FF0010100F091FD4FF07B
:1043100090004FF0330100F08BFD4FF02B004FF079
:104320000B0100F085FD4FF0070040F2331100F063
:104330007FFDC2E140F66A33C2F2000340F223126D
:104340001A804FF0670000F087FD03461A4640F6DA
:104350006A33C2F200031A8040F66A33C2F20003E5
:104360001B88472B40F0A98140F6E023C2F20003EE
:104370004FF00B021A704FF042004FF0080100F0AE
:1043800057FD4FF046004FF0B40100F051FD4FF0E3
:1043900047004FF0430100F04BFD4FF048004FF055
:1043A000130100F045FD4FF049004FF0470100F0C8
:1043B0003FFD4FF04A004FF0140100F039FD4FF07F
:1043C0004B004FF0360100F033FD4FF04C004FF042
:1043D000030100F02DFD4FF04D004FF0460100F0BD
:1043E00027FD4FF04E004FF0050100F021FD4FF08A
:1043F0004F004FF0100100F01BFD4FF050004FF048
:10440000080100F015FD4FF051004FF00A0100F0D7
:104410000FFD4FF002004FF0000100F009FD4FF0DA
:1044200003004FF0000100F003FD4FF004004FF0D7
:10443000000100F0FDFC4FF005004FF0EF0100F02F
:10444000F7FC4FF006004FF0000100F0F1FC4FF0D8
:1044500007004FF0000100F0EBFC4FF008004FF0B8
:10446000010100F0E5FC4FF009004FF03F0100F0C2
:10447000DFFC4FF00A00FEF7E1F84FF001004FF0CB
:10448000060100F0D5FC4FF016004FF0C80100F017
:10449000CFFC4FF023004FF0950100F0C9FC4FF026
:1044A00024004FF0950100F0C3FC4FF025004FF0C1
:1044B000FF0100F0BDFC4FF027004FF0020100F0BB
:1044C000B7FC4FF028004FF0020100F0B1FC4FF0B4
:1044D00029004FF0020100F0ABFC4FF02A004FF032
:1044E000020100F0A5FC4FF02C004FF0020100F09B
:1044F0009FFC4FF02D004FF0020100F099FC4FF0AF
:104500003A004FF0010100F093FC4FF03B004FF0F8
:10451000010100F08DFC4FF03C004FF0F00100F085
:1045200087FC4FF03D004FF0000100F081FC4FF0A0
:104530001400FEF783F84FF035004FF0380100F01B
:1045400077FC4FF036004FF0780100F071FC4FF02F
:104550003E004FF0380100F06BFC4FF040004FF090
:104560000F0100F065FC4FF041004FF0F00100F04A
:104570005FFC4FF038004FF0000100F059FC4FF0A5
:1045800019004FF0490100F053FC4FF093004FF039
:104590000A0100F04DFC4FF00A00FEF74FF84FF013
:1045A00020004FF0200100F043FC4FF01D004FF0C1
:1045B000030100F03DFC4FF01E004FF0000100F041
:1045C00037FC4FF01F004FF0090100F031FC4FF0B5
:1045D00044004FF0530100F02BFC4FF045004FF02A
:1045E000100100F025FC4FF00A00FEF727F84FF00D
:1045F0001C004FF0040100F01BFC4FF01400FEF70C
:104600001DF84FF043004FF0800100F011FC4FF017
:104610000500FEF713F84FF01B004FF00A0100F001
:1046200007FC4FF02800FEF709F84FF01B004FF091
:10463000120100F0FDFB4FF02800FDF7FFFF4FF0E7
:1046400090004FF07F0100F0F3FB4FF026004FF099
:10465000040100F0EDFB4FF02800FDF7EFFF4FF0F5
:1046600026004FF0240100F0E3FB4FF026004FF04E
:104670002C0100F0DDFB4FF02800FDF7DFFF4FF0CD
:1046800070004FF0080100F0D3FB4FF026004FF010
:104690003C0100F0CDFB4FF057004FF0020100F05D
:1046A000C7FB4FF055004FF0000100F0C1FB4FF089
:1046B00057004FF0000100F0BBFB4FF03200FDF758
:1046C000BDFF80BD80B584B000AF0346FB804FF0D6
:1046D0000003FB6040F6E023C2F200031B780A2BC4
:1046E00006D040F6E023C2F200031B780B2B30D13A
:1046F0004FF002004FF0000100F09AFB4FF0030072
:104700004FF0000100F094FB4FF004004FF0000167
:1047100000F08EFB4FF005004FF0EF0100F088FB3A
:104720004FF006004FF0000100F082FB4FF0070051
:104730004FF0000100F07CFB4FF008004FF001014A
:1047400000F076FB4FF009004FF03F0100F070FBE6
:1047500005E04FF000004FF0000100F01BF84FF0B3
:10476000220000F03BFB4FF00003FB6007E0FB88FA
:10477000184600F041FBFB6803F10103FB60FA6897
:1047800042F6FF33C0F201039A42F0D907F1100755
:10479000BD4680BD80B584B000AF02460B46FA80AE
:1047A000BB80BB88C3F1EF03BB80BB88FB81FB8868
:1047B000BB80FB89FB8040F6E023C2F200031B783C
:1047C000A3F10403092B17D801A252F823F000BF6C
:1047D0001348000813480008F9470008F947000883
:1047E000F9470008F94700082D4800082D4800083F
:1047F000F94700086B480008FB884FF02000194675
:1048000000F016FBBB884FF02100194600F010FBAA
:104810002CE0FB884FF04E00194600F009FBBB88E6
:104820004FF04F00194600F003FB1FE0FB884FEAF2
:1048300013239BB24FF00200194600F0F9FAFB88EF
:104840004FF00300194600F0F3FABB884FEA132338
:104850009BB24FF00600194600F0EAFABB884FF011
:104860000700194600F0E4FA00E000BF07F1100766
:10487000BD4680BD80B582B000AF13460246FA80C7
:104880000A46BA807B80FA8840F23F139A420FD8DA
:10489000BB88EF2B0CD8FA88BB8810461946FFF767
:1048A00079FF7B884FF02200194600F0C1FA00E042
:1048B00000BF07F10807BD4680BD00BF80B584B0CA
:1048C00000AFF880B9807A803B80FA887B889A4272
:1048D00005D97B88FB81FB887B80FB89FB80BA88BC
:1048E0003B889A4205D93B88FB81BB883B80FB898A
:1048F000BB807A88FB88D31A9BB2BB813A88BB887D
:10490000D31A9BB27B81B7F90C30002B10D1F988F8
:10491000BA883B8B084611461A46FFF7ABFFBB88A7
:1049200003F10103BB803A88BB889A42EFD299E039
:10493000B7F90A30002B10D1F988BA883B8B0846AA
:1049400011461A46FFF796FFFB8803F10103FB802F
:104950007A88FB889A42EFD284E0B7F90C20B7F945
:104960000A309A423FDD7B894FEA43039AB2BB8902
:10497000D31A9BB2FB8129E0F988BA883B8B0846A1
:1049800011461A46FFF776FFFB8803F10103FB800F
:10499000B7F90E30002B11DDBB8803F10103BB809A
:1049A000B7F90A20B7F90C30D31A9BB24FEA430388
:1049B0009AB2FB89D3189BB2FB8107E07B894FEA4F
:1049C00043039AB2FB89D3189BB2FB81FA887B8898
:1049D0009A42D1D1F988BA883B8B084611461A46CB
:1049E000FFF748FF3EE0BB894FEA43039AB27B8959
:1049F000D31A9BB2FB8129E0F988BA883B8B084621
:104A000011461A46FFF736FFBB8803F10103BB804E
:104A1000B7F90E30002B11DDFB8803F10103FB8099
:104A2000B7F90A20B7F90C30D31A9BB24FEA430307
:104A30009AB2FB89D3189BB2FB8107E07B894FEACE
:104A400043039AB2FB89D3189BB2FB81BA883B8897
:104A50009A42D1D1F988BA883B8B084611461A464A
:104A6000FFF708FF07F11007BD4680BD90B585B080
:104A700002AFF880B9807A803B80FA887B88D318AF
:104A80009AB2F888B988BB883C8B0094FFF716FF70
:104A9000BA883B88D3189BB2F888B988FA883C8BCF
:104AA0000094FFF70BFFFA887B88D31898B2FA8836
:104AB0007B88D3189AB2B9883B88CB189BB2B98847
:104AC0003C8B0094FFF7FAFEBA883B88D31899B262
:104AD000FA887B88D3189AB2B8883B88C3189BB2EF
:104AE000F8883C8B0094FFF7E9FE07F10C07BD4600
:104AF00090BD00BF80B584B000AFF880B9807A80E7
:104B00003B80FB88FB6019E04FF00003BB600DE0C9
:104B1000FB6899B2BB689AB23B8B084611461A46AD
:104B2000FFF7A8FEBB6803F10103BB603A88BB68CE
:104B30009A42EDDCFB6803F10103FB607A88FB68B5
:104B40009A42E1DC07F11007BD4680BD80B58AB00E
:104B500000AFF880B9807A803B80FB8803F10103C5
:104B60007B62FB8803F101033B627B8803F1FF3327
:104B7000FB617B8803F1FF33BB6178E0BB8803F105
:104B800001037B613B8803F1FF333B61BB8803F189
:104B90000103FB603B8803F1FF33BB6037E07B6AB6
:104BA00099B27B699AB23B8E084611461A46FFF7C6
:104BB00061FE3B6A99B23B699AB23B8E0846114648
:104BC0001A46FFF757FEFB6999B2FB689AB23B8E13
:104BD000084611461A46FFF74DFEBB6999B2BB68FD
:104BE0009AB23B8E084611461A46FFF743FE7B6990
:104BF00003F101037B613B6903F1FF333B61FB6818
:104C000003F10103FB60BB6803F1FF33BB603B882A
:104C10004FEA53039BB21A467B699A4217DB3B88E3
:104C20004FEA53039BB21A463B699A420FDC3B881A
:104C30004FEA53039BB21A46FB689A4207DB3B8854
:104C40004FEA53039BB21A46BB689A42A7DD7B6AC0
:104C500003F101037B623B6A03F101033B62FB69E1
:104C600003F1FF33FB61BB6903F1FF33BB617B8859
:104C70004FEA53039BB21A467B6A9A4218DB7B8841
:104C80004FEA53039BB21A463B6A9A4210DB7B8879
:104C90004FEA53039BB21A46FB699A4208DC7B88B1
:104CA0004FEA53039BB21A46BB699A427FF766AF3D
:104CB00007F12807BD4680BD80B588B000AFF880F9
:104CC000B980FA703B8007F10802FB78104619465C
:104CD000FCF7DAFA4FF00003FB833CE0FB8B07F1B3
:104CE0002002D31813F8183CFB764FF00003BB8367
:104CF0002AE0FA7EBB8BC3F1070342FA03F303F009
:104D00000103002B0ED0FA88BB8BD31899B2BA8856
:104D1000FB8BD3189AB23B88084611461A46FFF718
:104D2000A9FD0DE0FA88BB8BD31899B2BA88FB8B2A
:104D3000D3189AB23B8D084611461A46FFF79AFDE2
:104D4000BB8B03F10103BB83BB8B072BD1D9FB8B3F
:104D500003F10103FB83FB8B0F2BBFD907F1200766
:104D6000BD4680BD90B589B002AFBA600246FA81F7
:104D70000A46BA81FB80BB681B78FB75BB6803F1F0
:104D80000103BB60F889B989FA7DFB883C8D0094EA
:104D9000FFF792FFFA8940F237139A4204D8FB8951
:104DA00003F10803FB8110E0BB89DF2B07D84FF02C
:104DB0000003FB81BB8903F11003BB8105E04FF0C9
:104DC0000003FB814FF00003BB81BB681B78002B05
:104DD000D1D107F11C07BD4690BD00BF80B483B0A0
:104DE00000AF0346FB804FF0C043FA881A8007F1FA
:104DF0000C07BD4680BC704780B483B000AF03464B
:104E0000FB804FF00003C6F20203FA881A8007F114
:104E10000C07BD4680BC704780B400AF4FF0000364
:104E2000C6F202031B889BB21846BD4680BC704781
:104E300080B582B000AF02460B46FA80BB80FB888B
:104E40001846FFF7CBFFBB881846FFF7D5FF07F1E1
:104E50000807BD4680BD00BF80B582B000AF0346E5
:104E6000FB80FB881846FFF7B9FFFFF7D5FF034625
:104E7000184607F10807BD4680BD00BF80B483B067
:104E800000AF78604FF020437A681268796848680C
:104E90007968896808437968C96808437968096945
:104EA00008437968496908437968896908437968DA
:104EB000C96908437968096A08437968496A0843F7
:104EC0007968896A08437968C96A08437968096B0F
:104ED000014343F822107B689B68082B0DD14FF0EB
:104EE00020437A6812684FF020417868006851F8D2
:104EF000201041F0400143F822104FF020437A681F
:104F0000126802F101027968496B08687968496B97
:104F100049684FEA011108437968496B89684FEA8B
:104F2000012108437968496BC9684FEA0141084388
:104F30007968496B09694FEA015108437968496BFF
:104F400049694FEA016108437968496B89690143FE
:104F500043F822107B68DB6AB3F5804F27D14FF40A
:104F60008273CAF200037A6812687968896B0868EC
:104F70007968896B49684FEA011108437968896B40
:104F800089684FEA012108437968896B09694FEA0A
:104F9000015108437968896B49694FEA0161084307
:104FA0007968896B8969014343F8221009E04FF45D
:104FB0008273CAF200037A6812686FF0704143F896
:104FC000221007F10C07BD4680BC704780B483B047
:104FD00000AF78600B46FB70FB78002B0CD04FF0D5
:104FE00020434FF02042796852F8212042F001011D
:104FF0007A6843F822100EE04FF020424FF0204331
:10500000796853F821104FF6FE73C0F20F030B407E
:10501000796842F8213007F10C07BD4680BC704723
:1050200080B487B000AF786039604FF000037B61D7
:105030004FF000033B614FF00003FB604FF00003B3
:105040007B6186E07B694FF0010202FA03F33B616A
:105050003B681A683B691340FB60FA683B699A42F7
:1050600073D17B681A687B694FEA43034FF00301F1
:1050700001FA03F36FEA03031A407B681A607B6846
:105080001A683B681B7919467B694FEA430301FAAA
:1050900003F31A437B681A603B681B79012B03D02A
:1050A0003B681B79022B34D17B689A687B694FEA95
:1050B00043034FF0030101FA03F36FEA03031A40BD
:1050C0007B689A607B689A683B685B7919467B6964
:1050D0004FEA430301FA03F31A437B689A607B6843
:1050E0005A687B699BB24FF0010101FA03F36FEA42
:1050F00003031A407B685A607B685A683B689B7957
:1051000019467B699BB201FA03F39BB21A437B6891
:105110005A607B68DA687B699BB24FEA43034FF0C1
:10512000030101FA03F36FEA03031A407B68DA60B4
:105130007B68DA683B68DB7919467B694FEA430391
:1051400001FA03F31A437B68DA607B6903F1010318
:105150007B617B690F2B7FF675AF07F11C07BD469E
:1051600080BC704780B485B000AF78600B467B8010
:105170004FF00003FB737B681A697B881340002B98
:1051800003D04FF00103FB7302E04FF00003FB7309
:10519000FB7B184607F11407BD4680BC704700BF73
:1051A00080B483B000AF78600B467B807B687A88E0
:1051B0001A8307F10C07BD4680BC704780B483B0EA
:1051C00000AF78600B467B807B687A885A8307F152
:1051D0000C07BD4680BC704780B485B000AF7860D6
:1051E00013460A467A807B704FF00003FB604FF055
:1051F0000003BB607A787B8803F007034FEA8303E0
:1052000002FA03F3FB607B884FEAD3039BB21A4692
:105210007B884FEAD3039BB219467B6801F10801F2
:1052200053F821107B8803F007034FEA83034FF004
:105230000F0000FA03F36FEA030319407B6802F1E1
:10524000080243F822107B884FEAD3039BB21A4628
:105250007B6802F1080253F82220FB681343BB600D
:105260007B884FEAD3039BB21A467B6802F108029F
:10527000B96843F8221007F11407BD4680BC704797
:10528000ABBE00F002B800207047002A00F0018099
:1052900010600120704706980188044A914240F04E
:1052A0000380043006907047FEE70000ABBE0000AC
:1052B00080B485B000AF786040F6E423C2F200030A
:1052C0001B68002B08D140F6E423C2F2000341F230
:1052D0007042C2F200021A6040F6E423C2F20003F8
:1052E0001B68FB6040F6E423C2F200031A687B6887
:1052F000D21840F6E423C2F200031A60FB68184695
:1053000007F11407BD4680BC704700BF80B586B06A
:1053100000AF78604FF000037B61786802F046FFD1
:1053200002460B46C7E9022311E0D7E902014FF01C
:1053300000024FF00003C4F2240303F0D7F8024642
:105340000B46C7E902237B6903F101037B61D7E9BF
:1053500002014FF000024FF00003C3F6F07303F0B8
:1053600021FA0346002BE0D17B69184607F11807A4
:10537000BD4680BD80B487B000AF78604FF00102B9
:105380004FF00003C7E904234FF00103FB6019E06D
:105390007B694FF00A0202FB03F23B694FF0000108
:1053A00001FB03F3D1183A694FF00A03A2FB032370
:1053B000C9180B46C7E90423C7E90423FB6803F1B6
:1053C0000103FB60FA687B689A42E1DB3B6918469F
:1053D00007F11C07BD4680BC704700BF80B58CB08C
:1053E00000AFC7E902017A603B604FF001004FF463
:1053F000807103F043FD0346FB62D7E9022352EAC2
:1054000003010DD1F86A04F0C5FA0346FA6AD2180E
:105410004DF2B863C0F600031B881380FB6A64E09A
:105420004FF001004FF0020103F028FD03467B62BC
:10543000BB681846FFF76AFFB8627B68B3F1FF3FAD
:105440004FD10FE0F86A04F0A5FA0346FA6AD218C1
:105450004DF2B863C0F600031B8813803B6803F16C
:10546000FF333B603B68002BECDC3AE0B86AFFF7A7
:1054700081FF3862396A0A464FF00003D7E902011A
:1054800003F0ECF902460B461046194602F0CEFE38
:1054900002460B46C7E90623D7E9060103F096F951
:1054A00003467B61786A4DF2BC61C0F600017A69FF
:1054B000FCF790FCF86A796A04F07CF8F8627B6982
:1054C0003A6A02FB03F10A464FF00003D7E90201F2
:1054D000821A61EB0303C7E90223BB6A03F1FF33BE
:1054E000BB62BB6A002BC1DCFB6A184607F13007C0
:1054F000BD4680BDB0B592B000AFC7E902017A6089
:105500004FF000037B644FF001004FF4807103F013
:10551000B5FC03463B63D7E902014FF000024FF0B0
:10552000000303F02BF90346002B08D04FF0FF33A4
:105530007B64BB68BB60FB6883F00043FB60D7E91A
:10554000020103F0A1F902460B46C7E90A234FF016
:1055500001024FF00003C7E90E234FF000037B6206
:105560004FF000037B6319E0FB6B4FF00A0202FB74
:1055700003F2BB6B4FF0000101FB03F3D118BA6BD0
:105580004FF00A03A2FB0323C9180B46C7E90E23F9
:10559000C7E90E237B6B03F101037B637A6B7B68A6
:1055A0009A42E1DBD7E90A0102F040FE02460B46CF
:1055B000D7E9020102F0BCFC02460B4614461D4628
:1055C000D7E90E0102F032FE02460B46204629467C
:1055D00002F062FE02460B461046194603F054F9EB
:1055E00002460B46C7E90623BB691846FFF78EFE45
:1055F00003467A68D31A7B627B6AD7E90A014FF0C7
:105600000102FFF7EBFE78617B6AD7E906014FF0F4
:10561000FF32FFF7E3FE38617B6CB3F1FF3F09D146
:10562000386B4DF2C061C0F600017A693B69FCF746
:10563000D1FB08E0386B4DF2C861C0F600017A6911
:105640003B69FCF7C7FB3B6B184607F14807BD46B3
:10565000B0BD00BF80B582B000AF78607A684FF40B
:105660004053C4F201039A420CD14FF480504FF0E2
:105670000101FAF761FF4FF480504FF00001FAF793
:105680005BFF26E07A684FF46053C4F200039A424D
:105690000CD14FF480404FF00101FAF723FF4FF493
:1056A00080404FF00001FAF71DFF12E07A684FF4D6
:1056B0007053C4F200039A420BD14FF400404FF0F4
:1056C0000101FAF70FFF4FF400404FF00001FAF725
:1056D00009FF07F10807BD4680BD00BF80B485B053
:1056E00000AF786039604FF00003FB817B681B8856
:1056F000FB81FB8903F44153FB813B681A883B68BB
:105700005B8813439AB23B689B8813439AB23B6809
:10571000DB8813439AB23B681B8913439AB23B68F8
:105720005B8913439AB23B689B8913439AB23B68E7
:10573000DB8913439AB2FB891343FB817B68FA89A7
:105740001A807B689B8B9BB223F400639AB27B68C0
:105750009A833B681A8A7B681A8207F11407BD4650
:1057600080BC704780B483B000AF78600B46FB709C
:10577000FB78002B08D07B681B889BB243F040036A
:105780009AB27B681A8007E07B681B889BB223F083
:1057900040039AB27B681A8007F10C07BD4680BCB3
:1057A000704700BF80B483B000AF78607B689B898E
:1057B0009BB2184607F10C07BD4680BC704700BF7E
:1057C00080B483B000AF78600B467B807B687A88BA
:1057D0009A8107F10C07BD4680BC704780B485B044
:1057E00000AF78600B467B804FF00003FB737B6853
:1057F0001B899AB27B8813409BB2002B03D04FF0D9
:105800000103FB7302E04FF00003FB73FB7B1846C0
:1058100007F11407BD4680BC704700BF90B585B046
:1058200000AF78604FF00003FB600CE0FB687A6823
:10583000D3181B78282B02D14FF001030CE0FB6832
:1058400003F10103FB60FC68786804F0A3F80346E9
:105850009C42EBD34FF0FF33184607F11407BD46C7
:1058600090BD00BF90B587B000AF7860786804F055
:1058700091F803464FF00400194603F0FFFA03467F
:10588000FB604FF001033B614FF000037B612CE0B4
:105890007B697A68D3181B78282B0BD17B694FEA78
:1058A0008303FA68D3183A691A603B6903F101036C
:1058B0003B6116E07B697A68D3181B78292B08D1E5
:1058C0007B694FEA8303FA68D3184FF000021A602D
:1058D00007E07B694FEA8303FA68D3184FF0FF3281
:1058E0001A607B6903F101037B617C69786804F0CD
:1058F00051F803469C42CBD3FB68184607F11C07BE
:10590000BD4690BD80B487B000AF786039604FF07D
:10591000FF337B614FF0FF333B614FF00003FB60CF
:1059200015E0FB684FEA83037A68D3181B68002BE5
:1059300009DDFB687B61FB684FEA83037A68D31853
:105940001B683B6107E0FB6803F10103FB60FA6839
:105950003B689A42E5DB7B6903F10103FB601DE0D4
:10596000FB684FEA83037A68D3181B68002B11DDAC
:10597000FB684FEA83037A68D3181A683B699A4236
:1059800008DDFB684FEA83037A68D3181B683B6124
:10599000FB687B61FB6803F10103FB60FA683B680D
:1059A0009A42DDDB7B69184607F11C07BD4680BCC7
:1059B000704700BF90B589B000AFF860B9607A60F9
:1059C0007B68FB610EE0FB694FEA8303BA68D3187A
:1059D0001B68002B02D1FB69BB610AE0FB6903F184
:1059E0000103FB61FC69F86803F0D4FF03469C42A5
:1059F000E9D3BA697B68D31A03F1FF337B617B6912
:105A00004FF00100194603F039FA03463B617B6809
:105A100003F10103FA68D2187B69386911461A4606
:105A200003F0E8FF3B69184607F12407BD4690BD27
:105A3000B0B586B000AF786039604FF004004FF029
:105A4000020103F01BFA0346FB604FF000037B6189
:105A500010E07B694FEA8303FA68D4184FF0010025
:105A60004FF4807103F00AFA034623607B6903F167
:105A700001037B617B69012BEBDD3B687B610CE003
:105A80007B697A68D3181B78292B02D17B693B612B
:105A90000AE07B6903F101037B617C69786803F0AC
:105AA00079FF03469C42EBD3FB681A683B681046BB
:105AB00079681A4603F09EFFFB6803F104031D6832
:105AC0003B6903F101037A68D418786803F062FF38
:105AD0000346284621461A4603F08CFFFB68184609
